SIM0000003PANCAKES01Private             000045000SIM
SIM0000001GOTH000001Private             000150000SIM
SIM0000002GOTH000002Private             000999999SIM
SIM0000005DONLOTH001Business            080072500SIM
